{
  "_format": "hh-sol-artifact-1",
  "contractName": "ASP",
  "sourceName": "contracts/ASP.sol",
  "abi": [
    {
      "inputs": [
        {
          "internalType": "address",
          "name": "_hasher",
          "type": "address"
        }
      ],
      "stateMutability": "nonpayable",
      "type": "constructor"
    },
    {
      "anonymous": false,
      "inputs": [
        {
          "indexed": false,
          "internalType": "uint256",
          "name": "root",
          "type": "uint256"
        },
        {
          "indexed": false,
          "internalType": "uint256[10]",
          "name": "hashPairings",
          "type": "uint256[10]"
        },
        {
          "indexed": false,
          "internalType": "uint8[10]",
          "name": "pairDirection",
          "type": "uint8[10]"
        }
      ],
      "name": "userAdded",
      "type": "event"
    },
    {
      "inputs": [
        {
          "internalType": "uint256",
          "name": "_Commitment",
          "type": "uint256"
        }
      ],
      "name": "addUser",
      "outputs": [],
      "stateMutability": "nonpayable",
      "type": "function"
    },
    {
      "inputs": [],
      "name": "admin",
      "outputs": [
        {
          "internalType": "address",
          "name": "",
          "type": "address"
        }
      ],
      "stateMutability": "view",
      "type": "function"
    },
    {
      "inputs": [
        {
          "internalType": "uint256",
          "name": "_root",
          "type": "uint256"
        }
      ],
      "name": "doesRootExist",
      "outputs": [
        {
          "internalType": "bool",
          "name": "",
          "type": "bool"
        }
      ],
      "stateMutability": "view",
      "type": "function"
    },
    {
      "inputs": [],
      "name": "nextLeafIdx",
      "outputs": [
        {
          "internalType": "uint256",
          "name": "",
          "type": "uint256"
        }
      ],
      "stateMutability": "view",
      "type": "function"
    },
    {
      "inputs": [
        {
          "internalType": "uint256",
          "name": "",
          "type": "uint256"
        }
      ],
      "name": "roots",
      "outputs": [
        {
          "internalType": "bool",
          "name": "",
          "type": "bool"
        }
      ],
      "stateMutability": "view",
      "type": "function"
    },
    {
      "inputs": [],
      "name": "treeLevel",
      "outputs": [
        {
          "internalType": "uint8",
          "name": "",
          "type": "uint8"
        }
      ],
      "stateMutability": "view",
      "type": "function"
    }
  ],
  "bytecode": "0x6000805460ff1916600a90811782556001919091556101c06040527f33418cd1669b4e7f4bf473ec2db9a489b3d6f9f11b91d0b3b6004432ab53d60b60809081527f350ffb7c45ccf8940c163b192252495b614def57272b6f8d9a53a5b3e44ef8bd60a0527fc8acb7af851baf91a82b1ad46b01ac506ce80387170890dea377d21e8520258460c0527f5171d273154b2764aa5903210e16bd1899b18648d1358d41887a113227e9acc560e0527f986c06cb04d613f57cf7a1da410e0f22c794e1ec1ae125898cfc9662a5e5be59610100527f6eb9a05106eff3031621027680204b2e9326b0e5191bd62f3cd7bf7f6d94d027610120527fa1cbc8691493398c061f547b4882edbb6a38ce1730c8a2605e9d8138d4ad1226610140527f850aa72f3d8bc65181e9c29d76f7614e2f939ade9442abac29fc8a0329deeffd610160527fe9c6f678752dbfc89028bf8b9b1cce608b34b742b75fbae878ec2c6ae803dc1e610180527fa9e22c2e1f4531bc4389032bb472b97c25a7298d27ba4fefd75439a1be46f77f6101a05261019791600691906101f1565b503480156101a457600080fd5b5060405161095a38038061095a8339810160408190526101c391610244565b600480546001600160a01b039092166001600160a01b03199283161790556005805490911633179055610274565b82600a810192821561021f579160200282015b8281111561021f578251825591602001919060010190610204565b5061022b92915061022f565b5090565b5b8082111561022b5760008155600101610230565b60006020828403121561025657600080fd5b81516001600160a01b038116811461026d57600080fd5b9392505050565b6106d7806102836000396000f3fe608060405234801561001057600080fd5b50600436106100625760003560e01c806345e0523f146100675780639639cb8d14610083578063b8e79564146100b6578063c2b40ae4146100d5578063e1d81736146100f8578063f851a4401461010d575b600080fd5b61007060015481565b6040519081526020015b60405180910390f35b6100a6610091366004610439565b60009081526002602052604090205460ff1690565b604051901515815260200161007a565b6000546100c39060ff1681565b60405160ff909116815260200161007a565b6100a66100e3366004610439565b60026020526000908152604090205460ff1681565b61010b610106366004610439565b610138565b005b600554610120906001600160a01b031681565b6040516001600160a01b03909116815260200161007a565b600054819061014b9060ff16600261054e565b6001541061018b5760405162461bcd60e51b81526020600482015260096024820152681d1c99594b599d5b1b60ba1b604482015260640160405180910390fd5b60006101956103fc565b61019d6103fc565b600154846000806101ac61041b565b60005b60005460ff908116908216101561037c576101cb60028761057a565b60000361024a5784935060068160ff16600a81106101eb576101eb61058e565b0154925060068160ff16600a81106102055761020561058e565b0154888260ff16600a811061021c5761021c61058e565b602002015260008760ff8316600a81106102385761023861058e565b60ff90921660209290920201526102a0565b60ff8116600081815260036020526040902054945085935084908990600a81106102765761027661058e565b602002015260018760ff8316600a81106102925761029261058e565b60ff90921660209290920201525b60ff81166000908152600360205260408120869055849083906020020152828260016020020181815250506000600460009054906101000a90046001600160a01b03166001600160a01b031663d622e5a4620249f0858e6040518463ffffffff1660e01b81526004016103149291906105a4565b6020604051808303818786fa158015610331573d6000803e3d6000fd5b50505050506040513d601f19601f8201168201806040525081019061035691906105dc565b95508590506103666002886105f5565b965050808061037490610609565b9150506101af565b506000848152600260205260408120805460ff1916600190811790915580549599508995909182916103af908390610628565b90915550506040517f24912d67c30845347b4a932ac74d20147045310108cc81c73271fe1a78b3b15c906103e8908a908a908a9061063b565b60405180910390a150505050505050505050565b604051806101400160405280600a906020820280368337509192915050565b60405180604001604052806002906020820280368337509192915050565b60006020828403121561044b57600080fd5b5035919050565b634e487b7160e01b600052601160045260246000fd5b600181815b808511156104a357816000190482111561048957610489610452565b8085161561049657918102915b93841c939080029061046d565b509250929050565b6000826104ba57506001610548565b816104c757506000610548565b81600181146104dd57600281146104e757610503565b6001915050610548565b60ff8411156104f8576104f8610452565b50506001821b610548565b5060208310610133831016604e8410600b8410161715610526575081810a610548565b6105308383610468565b806000190482111561054457610544610452565b0290505b92915050565b600061055d60ff8416836104ab565b9392505050565b634e487b7160e01b600052601260045260246000fd5b60008261058957610589610564565b500690565b634e487b7160e01b600052603260045260246000fd5b60608101818460005b60028110156105cc5781518352602092830192909101906001016105ad565b5050508260408301529392505050565b6000602082840312156105ee57600080fd5b5051919050565b60008261060457610604610564565b500490565b600060ff821660ff810361061f5761061f610452565b60010192915050565b8082018082111561054857610548610452565b8381526102a0810160208083018560005b600a8110156106695781518352918301919083019060010161064c565b50505061016083018460005b600a81101561069557815160ff1683529183019190830190600101610675565b5050505094935050505056fea2646970667358221220aa5e7bcbaf0911c7b0bae52573d12800a2a073a84051a0437dc93cd58d99493464736f6c63430008110033",
  "linkReferences": {},
  "deployedLinkReferences": {}
}