{
  "_format": "hh-sol-artifact-1",
  "contractName": "CryptoMixer",
  "sourceName": "contracts/CryptoMixer.sol",
  "abi": [
    {
      "inputs": [
        {
          "internalType": "address",
          "name": "_hasher",
          "type": "address"
        },
        {
          "internalType": "address",
          "name": "_verifier",
          "type": "address"
        },
        {
          "internalType": "address",
          "name": "_asp",
          "type": "address"
        }
      ],
      "stateMutability": "nonpayable",
      "type": "constructor"
    },
    {
      "anonymous": false,
      "inputs": [
        {
          "indexed": false,
          "internalType": "uint256",
          "name": "root",
          "type": "uint256"
        },
        {
          "indexed": false,
          "internalType": "uint256[10]",
          "name": "hashPairings",
          "type": "uint256[10]"
        },
        {
          "indexed": false,
          "internalType": "uint8[10]",
          "name": "pairDirection",
          "type": "uint8[10]"
        }
      ],
      "name": "Deposit",
      "type": "event"
    },
    {
      "anonymous": false,
      "inputs": [
        {
          "indexed": false,
          "internalType": "address",
          "name": "to",
          "type": "address"
        },
        {
          "indexed": false,
          "internalType": "uint256",
          "name": "nullifierHash",
          "type": "uint256"
        }
      ],
      "name": "Withdrawal",
      "type": "event"
    },
    {
      "inputs": [
        {
          "internalType": "address[]",
          "name": "_asps",
          "type": "address[]"
        }
      ],
      "name": "addAsp",
      "outputs": [],
      "stateMutability": "nonpayable",
      "type": "function"
    },
    {
      "inputs": [
        {
          "internalType": "address",
          "name": "",
          "type": "address"
        }
      ],
      "name": "asps",
      "outputs": [
        {
          "internalType": "bool",
          "name": "",
          "type": "bool"
        }
      ],
      "stateMutability": "view",
      "type": "function"
    },
    {
      "inputs": [
        {
          "internalType": "uint256",
          "name": "",
          "type": "uint256"
        }
      ],
      "name": "commitments",
      "outputs": [
        {
          "internalType": "bool",
          "name": "",
          "type": "bool"
        }
      ],
      "stateMutability": "view",
      "type": "function"
    },
    {
      "inputs": [],
      "name": "denomination",
      "outputs": [
        {
          "internalType": "uint256",
          "name": "",
          "type": "uint256"
        }
      ],
      "stateMutability": "view",
      "type": "function"
    },
    {
      "inputs": [
        {
          "internalType": "uint256",
          "name": "_commitment",
          "type": "uint256"
        }
      ],
      "name": "deposit",
      "outputs": [],
      "stateMutability": "payable",
      "type": "function"
    },
    {
      "inputs": [],
      "name": "nextLeafIdx",
      "outputs": [
        {
          "internalType": "uint256",
          "name": "",
          "type": "uint256"
        }
      ],
      "stateMutability": "view",
      "type": "function"
    },
    {
      "inputs": [
        {
          "internalType": "uint256",
          "name": "",
          "type": "uint256"
        }
      ],
      "name": "nullifierHashes",
      "outputs": [
        {
          "internalType": "bool",
          "name": "",
          "type": "bool"
        }
      ],
      "stateMutability": "view",
      "type": "function"
    },
    {
      "inputs": [],
      "name": "owner",
      "outputs": [
        {
          "internalType": "address",
          "name": "",
          "type": "address"
        }
      ],
      "stateMutability": "view",
      "type": "function"
    },
    {
      "inputs": [
        {
          "internalType": "uint256",
          "name": "",
          "type": "uint256"
        }
      ],
      "name": "roots",
      "outputs": [
        {
          "internalType": "bool",
          "name": "",
          "type": "bool"
        }
      ],
      "stateMutability": "view",
      "type": "function"
    },
    {
      "inputs": [],
      "name": "treeLevel",
      "outputs": [
        {
          "internalType": "uint8",
          "name": "",
          "type": "uint8"
        }
      ],
      "stateMutability": "view",
      "type": "function"
    },
    {
      "inputs": [
        {
          "internalType": "address",
          "name": "_asp",
          "type": "address"
        },
        {
          "internalType": "uint256[2]",
          "name": "a",
          "type": "uint256[2]"
        },
        {
          "internalType": "uint256[2][2]",
          "name": "b",
          "type": "uint256[2][2]"
        },
        {
          "internalType": "uint256[2]",
          "name": "c",
          "type": "uint256[2]"
        },
        {
          "internalType": "uint256[3]",
          "name": "input",
          "type": "uint256[3]"
        }
      ],
      "name": "withdraw",
      "outputs": [],
      "stateMutability": "payable",
      "type": "function"
    }
  ],
  "bytecode": "0x6004805460ff1916600a908117909155662386f26fc1000060055560006006556101e06040527f33418cd1669b4e7f4bf473ec2db9a489b3d6f9f11b91d0b3b6004432ab53d60b60a09081527f350ffb7c45ccf8940c163b192252495b614def57272b6f8d9a53a5b3e44ef8bd60c0527fc8acb7af851baf91a82b1ad46b01ac506ce80387170890dea377d21e8520258460e0527f5171d273154b2764aa5903210e16bd1899b18648d1358d41887a113227e9acc5610100527f986c06cb04d613f57cf7a1da410e0f22c794e1ec1ae125898cfc9662a5e5be59610120527f6eb9a05106eff3031621027680204b2e9326b0e5191bd62f3cd7bf7f6d94d027610140527fa1cbc8691493398c061f547b4882edbb6a38ce1730c8a2605e9d8138d4ad1226610160527f850aa72f3d8bc65181e9c29d76f7614e2f939ade9442abac29fc8a0329deeffd610180527fe9c6f678752dbfc89028bf8b9b1cce608b34b742b75fbae878ec2c6ae803dc1e6101a0527fa9e22c2e1f4531bc4389032bb472b97c25a7298d27ba4fefd75439a1be46f77f6101c052620001a591600b91906200022a565b50348015620001b357600080fd5b506040516200145638038062001456833981016040819052620001d691620002a1565b60016000818155600280546001600160a01b03199081166001600160a01b039788161790915582541693851693909317815592168152600360205260409020805460ff1916909117905533608052620002eb565b82600a81019282156200025b579160200282015b828111156200025b5782518255916020019190600101906200023e565b50620002699291506200026d565b5090565b5b808211156200026957600081556001016200026e565b80516001600160a01b03811681146200029c57600080fd5b919050565b600080600060608486031215620002b757600080fd5b620002c28462000284565b9250620002d26020850162000284565b9150620002e26040850162000284565b90509250925092565b6080516111486200030e600039600081816101c701526105f801526111486000f3fe60806040526004361061009c5760003560e01c8063608686d911610064578063608686d91461017f5780638bca6d161461019f5780638da5cb5b146101b5578063b6b55f2514610201578063b8e7956414610214578063c2b40ae41461024057600080fd5b80631f79a1e9146100a15780632d306f41146100e657806333a1c73c146100fb57806345e0523f1461012b57806349ce89971461014f575b600080fd5b3480156100ad57600080fd5b506100d16100bc366004610ad7565b60096020526000908152604090205460ff1681565b60405190151581526020015b60405180910390f35b6100f96100f4366004610bef565b610270565b005b34801561010757600080fd5b506100d1610116366004610cde565b60036020526000908152604090205460ff1681565b34801561013757600080fd5b5061014160065481565b6040519081526020016100dd565b34801561015b57600080fd5b506100d161016a366004610ad7565b600a6020526000908152604090205460ff1681565b34801561018b57600080fd5b506100f961019a366004610d00565b6105ed565b3480156101ab57600080fd5b5061014160055481565b3480156101c157600080fd5b506101e97f000000000000000000000000000000000000000000000000000000000000000081565b6040516001600160a01b0390911681526020016100dd565b6100f961020f366004610ad7565b6106be565b34801561022057600080fd5b5060045461022e9060ff1681565b60405160ff90911681526020016100dd565b34801561024c57600080fd5b506100d161025b366004610ad7565b60076020526000908152604090205460ff1681565b610278610a41565b80516020808301516040808501516000838152600990945292205490919060ff16156102db5760405162461bcd60e51b815260206004820152600d60248201526c185b1c9958591e4b5cdc195b9d609a1b60448201526064015b60405180910390fd5b60008381526007602052604090205460ff166103245760405162461bcd60e51b81526020600482015260086024820152671b9bdd0b5c9bdbdd60c21b60448201526064016102d2565b6001600160a01b03881660009081526003602052604090205460ff1615156001146103815760405162461bcd60e51b815260206004820152600d60248201526c04e6f742076616c69642041535609c1b60448201526064016102d2565b60015460408051608081018252858152602081018590528082018490523360608201819052915191926000926001600160a01b03909116916103cc918c918c918c9190602401610dec565b60408051601f198184030181529181526020820180516001600160e01b0316635fe8c13b60e01b179052516104019190610e93565b6000604051808303816000865af19150503d806000811461043e576040519150601f19603f3d011682016040523d82523d6000602084013e610443565b606091505b50509050806104845760405162461bcd60e51b815260206004820152600d60248201526c34b73b30b634b216b83937b7b360991b60448201526064016102d2565b600084815260096020526040808220805460ff19166001179055600554905133929183918381818185875af1925050503d80600081146104e0576040519150601f19603f3d011682016040523d82523d6000602084013e6104e5565b606091505b50509050806105275760405162461bcd60e51b815260206004820152600e60248201526d1c185e5b595b9d0b59985a5b195960921b60448201526064016102d2565b604051639639cb8d60e01b8152600481018690528c906001600160a01b03821690639639cb8d90602401602060405180830381865afa15801561056e573d6000803e3d6000fd5b505050506040513d601f19601f820116820180604052508101906105929190610ec2565b61059b57600080fd5b60408051338152602081018990527f7fcf532c15f0a6db0bd6d0e038bea71d30d808c7d98cb3bf7268a95bf5081b65910160405180910390a150505050505050506105e66001600055565b5050505050565b336001600160a01b037f000000000000000000000000000000000000000000000000000000000000000016146106525760405162461bcd60e51b815260206004820152600a60248201526937b7363c9030b236b4b760b11b60448201526064016102d2565b60005b81518110156106ba5760016003600084848151811061067657610676610dad565b6020908102919091018101516001600160a01b03168252810191909152604001600020805460ff1916911515919091179055806106b281610efa565b915050610655565b5050565b6106c6610a41565b600554341461070a5760405162461bcd60e51b815260206004820152601060248201526f1a5b98dbdc9c9958dd0b585b5bdd5b9d60821b60448201526064016102d2565b6000818152600a602052604090205460ff161561075f5760405162461bcd60e51b8152602060048201526013602482015272195e1a5cdd1a5b99cb58dbdb5b5a5d1b595b9d606a1b60448201526064016102d2565b6004546107709060ff166002610ff9565b600654106107ac5760405162461bcd60e51b81526020600482015260096024820152681d1c99594b599d5b1b60ba1b60448201526064016102d2565b60006107b6610a9a565b6107be610a9a565b600654846000806107cd610ab9565b60005b60045460ff908116908216101561099d576107ec60028761101e565b60000361086b57849350600b8160ff16600a811061080c5761080c610dad565b01549250600b8160ff16600a811061082657610826610dad565b0154888260ff16600a811061083d5761083d610dad565b602002015260008760ff8316600a811061085957610859610dad565b60ff90921660209290920201526108c1565b60ff8116600081815260086020526040902054945085935084908990600a811061089757610897610dad565b602002015260018760ff8316600a81106108b3576108b3610dad565b60ff90921660209290920201525b60ff81166000908152600860205260408120869055849083906020020152828260016020020181815250506000600260009054906101000a90046001600160a01b03166001600160a01b031663d622e5a4620249f0858e6040518463ffffffff1660e01b8152600401610935929190611032565b6020604051808303818786fa158015610952573d6000803e3d6000fd5b50505050506040513d601f19601f82011682018060405250810190610977919061104d565b9550859050610987600288611066565b96505080806109959061107a565b9150506107d0565b506000848152600760205260408120805460ff1916600190811790915560068054969a508a96919290916109d2908490611099565b90915550506000898152600a602052604090819020805460ff19166001179055517fe6ab8667cb740d6c65a4ad321c031eb42f6c5085d5753238d1b2e1e370c1348390610a24908a908a908a906110ac565b60405180910390a15050505050505050610a3e6001600055565b50565b600260005403610a935760405162461bcd60e51b815260206004820152601f60248201527f5265656e7472616e637947756172643a207265656e7472616e742063616c6c0060448201526064016102d2565b6002600055565b604051806101400160405280600a906020820280368337509192915050565b60405180604001604052806002906020820280368337509192915050565b600060208284031215610ae957600080fd5b5035919050565b80356001600160a01b0381168114610b0757600080fd5b919050565b634e487b7160e01b600052604160045260246000fd5b6040805190810167ffffffffffffffff81118282101715610b4557610b45610b0c565b60405290565b6040516060810167ffffffffffffffff81118282101715610b4557610b45610b0c565b604051601f8201601f1916810167ffffffffffffffff81118282101715610b9757610b97610b0c565b604052919050565b600082601f830112610bb057600080fd5b610bb8610b22565b806040840185811115610bca57600080fd5b845b81811015610be4578035845260209384019301610bcc565b509095945050505050565b6000806000806000610180808789031215610c0957600080fd5b610c1287610af0565b95506020610c2289828a01610b9f565b955088607f890112610c3357600080fd5b610c3b610b22565b8060e08a018b811115610c4d57600080fd5b60608b015b81811015610c7257610c648d82610b9f565b845292840192604001610c52565b50819750610c808c82610b9f565b96505050508861013f890112610c9557600080fd5b610c9d610b4b565b91880191808a841115610caf57600080fd5b6101208a015b84811015610ccc5780358352918301918301610cb5565b50809450505050509295509295909350565b600060208284031215610cf057600080fd5b610cf982610af0565b9392505050565b60006020808385031215610d1357600080fd5b823567ffffffffffffffff80821115610d2b57600080fd5b818501915085601f830112610d3f57600080fd5b813581811115610d5157610d51610b0c565b8060051b9150610d62848301610b6e565b8181529183018401918481019088841115610d7c57600080fd5b938501935b83851015610da157610d9285610af0565b82529385019390850190610d81565b98975050505050505050565b634e487b7160e01b600052603260045260246000fd5b8060005b6002811015610de6578151845260209384019390910190600101610dc7565b50505050565b6101808101610dfb8287610dc3565b60408083018660005b6002808210610e135750610e4e565b82518460005b83811015610e37578251825260209283019290910190600101610e19565b505050928401925060209190910190600101610e04565b50505050610e5f60c0830185610dc3565b61010082018360005b6004811015610e87578151835260209283019290910190600101610e68565b50505095945050505050565b6000825160005b81811015610eb45760208186018101518583015201610e9a565b506000920191825250919050565b600060208284031215610ed457600080fd5b81518015158114610cf957600080fd5b634e487b7160e01b600052601160045260246000fd5b600060018201610f0c57610f0c610ee4565b5060010190565b600181815b80851115610f4e578160001904821115610f3457610f34610ee4565b80851615610f4157918102915b93841c9390800290610f18565b509250929050565b600082610f6557506001610ff3565b81610f7257506000610ff3565b8160018114610f885760028114610f9257610fae565b6001915050610ff3565b60ff841115610fa357610fa3610ee4565b50506001821b610ff3565b5060208310610133831016604e8410600b8410161715610fd1575081810a610ff3565b610fdb8383610f13565b8060001904821115610fef57610fef610ee4565b0290505b92915050565b6000610cf960ff841683610f56565b634e487b7160e01b600052601260045260246000fd5b60008261102d5761102d611008565b500690565b606081016110408285610dc3565b8260408301529392505050565b60006020828403121561105f57600080fd5b5051919050565b60008261107557611075611008565b500490565b600060ff821660ff810361109057611090610ee4565b60010192915050565b80820180821115610ff357610ff3610ee4565b8381526102a0810160208083018560005b600a8110156110da578151835291830191908301906001016110bd565b50505061016083018460005b600a81101561110657815160ff16835291830191908301906001016110e6565b5050505094935050505056fea2646970667358221220608b7a8556f8f726ec7c4195afe72ce35180be9f12ba61bb7d8778ae7e4b86bf64736f6c63430008110033",
  "linkReferences": {},
  "deployedLinkReferences": {}
}