{
    "_format": "hh-sol-artifact-1",
    "contractName": "AnonASP",
    "sourceName": "contracts/anonAadhar/AnonASP.sol",
    "abi": [
        {
            "inputs": [
                {
                    "internalType": "address",
                    "name": "_hasher",
                    "type": "address"
                },
                {
                    "internalType": "address",
                    "name": "_anonVerifier",
                    "type": "address"
                }
            ],
            "stateMutability": "nonpayable",
            "type": "constructor"
        },
        {
            "anonymous": false,
            "inputs": [
                {
                    "indexed": false,
                    "internalType": "uint256",
                    "name": "root",
                    "type": "uint256"
                },
                {
                    "indexed": false,
                    "internalType": "uint256[10]",
                    "name": "hashPairings",
                    "type": "uint256[10]"
                },
                {
                    "indexed": false,
                    "internalType": "uint8[10]",
                    "name": "pairDirection",
                    "type": "uint8[10]"
                }
            ],
            "name": "userAdded",
            "type": "event"
        },
        {
            "inputs": [
                {
                    "internalType": "uint256",
                    "name": "_Commitment",
                    "type": "uint256"
                },
                {
                    "internalType": "uint256[2]",
                    "name": "_pA",
                    "type": "uint256[2]"
                },
                {
                    "internalType": "uint256[2][2]",
                    "name": "_pB",
                    "type": "uint256[2][2]"
                },
                {
                    "internalType": "uint256[2]",
                    "name": "_pC",
                    "type": "uint256[2]"
                },
                {
                    "internalType": "uint256[34]",
                    "name": "_pubSignals",
                    "type": "uint256[34]"
                }
            ],
            "name": "addUser",
            "outputs": [],
            "stateMutability": "nonpayable",
            "type": "function"
        },
        {
            "inputs": [],
            "name": "admin",
            "outputs": [
                {
                    "internalType": "address",
                    "name": "",
                    "type": "address"
                }
            ],
            "stateMutability": "view",
            "type": "function"
        },
        {
            "inputs": [
                {
                    "internalType": "uint256",
                    "name": "_root",
                    "type": "uint256"
                }
            ],
            "name": "doesRootExist",
            "outputs": [
                {
                    "internalType": "bool",
                    "name": "",
                    "type": "bool"
                }
            ],
            "stateMutability": "view",
            "type": "function"
        },
        {
            "inputs": [],
            "name": "nextLeafIdx",
            "outputs": [
                {
                    "internalType": "uint256",
                    "name": "",
                    "type": "uint256"
                }
            ],
            "stateMutability": "view",
            "type": "function"
        },
        {
            "inputs": [
                {
                    "internalType": "uint256",
                    "name": "",
                    "type": "uint256"
                }
            ],
            "name": "roots",
            "outputs": [
                {
                    "internalType": "bool",
                    "name": "",
                    "type": "bool"
                }
            ],
            "stateMutability": "view",
            "type": "function"
        },
        {
            "inputs": [],
            "name": "treeLevel",
            "outputs": [
                {
                    "internalType": "uint8",
                    "name": "",
                    "type": "uint8"
                }
            ],
            "stateMutability": "view",
            "type": "function"
        }
    ],
    "bytecode": "0x6000805460ff1916600a90811782556001919091556101c06040527f33418cd1669b4e7f4bf473ec2db9a489b3d6f9f11b91d0b3b6004432ab53d60b60809081527f350ffb7c45ccf8940c163b192252495b614def57272b6f8d9a53a5b3e44ef8bd60a0527fc8acb7af851baf91a82b1ad46b01ac506ce80387170890dea377d21e8520258460c0527f5171d273154b2764aa5903210e16bd1899b18648d1358d41887a113227e9acc560e0527f986c06cb04d613f57cf7a1da410e0f22c794e1ec1ae125898cfc9662a5e5be59610100527f6eb9a05106eff3031621027680204b2e9326b0e5191bd62f3cd7bf7f6d94d027610120527fa1cbc8691493398c061f547b4882edbb6a38ce1730c8a2605e9d8138d4ad1226610140527f850aa72f3d8bc65181e9c29d76f7614e2f939ade9442abac29fc8a0329deeffd610160527fe9c6f678752dbfc89028bf8b9b1cce608b34b742b75fbae878ec2c6ae803dc1e610180527fa9e22c2e1f4531bc4389032bb472b97c25a7298d27ba4fefd75439a1be46f77f6101a05261019791600791906101fe565b503480156101a457600080fd5b50604051610b86380380610b868339810160408190526101c39161026d565b600480546001600160a01b039384166001600160a01b03199182161790915560068054821633179055600580549290931691161790556102a0565b82600a810192821561022c579160200282015b8281111561022c578251825591602001919060010190610211565b5061023892915061023c565b5090565b5b80821115610238576000815560010161023d565b80516001600160a01b038116811461026857600080fd5b919050565b6000806040838503121561028057600080fd5b61028983610251565b915061029760208401610251565b90509250929050565b6108d7806102af6000396000f3fe608060405234801561001057600080fd5b50600436106100625760003560e01c8063454001ff1461006757806345e0523f1461007c5780639639cb8d14610098578063b8e79564146100cb578063c2b40ae4146100ea578063f851a4401461010d575b600080fd5b61007a61007536600461055a565b610138565b005b61008560015481565b6040519081526020015b60405180910390f35b6100bb6100a63660046105cc565b60009081526002602052604090205460ff1690565b604051901515815260200161008f565b6000546100d89060ff1681565b60405160ff909116815260200161008f565b6100bb6100f83660046105cc565b60026020526000908152604090205460ff1681565b600654610120906001600160a01b031681565b6040516001600160a01b03909116815260200161008f565b600054859061014b9060ff1660026106df565b6001541061018c5760405162461bcd60e51b81526020600482015260096024820152681d1c99594b599d5b1b60ba1b60448201526064015b60405180910390fd5b6006546001600160a01b031633146101d35760405162461bcd60e51b815260206004820152600a60248201526937b7363c9020b236b4b760b11b6044820152606401610183565b600554604051638525a61d60e01b81526000916001600160a01b031690638525a61d9061020a9089908990899089906004016106f5565b602060405180830381865afa158015610227573d6000803e3d6000fd5b505050506040513d601f19601f8201168201806040525081019061024b9190610742565b9050806102905760405162461bcd60e51b81526020600482015260136024820152721858591a185c881b9bdd081d995c9a599a5959606a1b6044820152606401610183565b600061029a610506565b6102a2610506565b600154856000806102b1610525565b60005b60005460ff9081169082161015610481576102d060028761077a565b60000361034f5784935060078160ff16600a81106102f0576102f061078e565b0154925060078160ff16600a811061030a5761030a61078e565b0154888260ff16600a81106103215761032161078e565b602002015260008760ff8316600a811061033d5761033d61078e565b60ff90921660209290920201526103a5565b60ff8116600081815260036020526040902054945085935084908990600a811061037b5761037b61078e565b602002015260018760ff8316600a81106103975761039761078e565b60ff90921660209290920201525b60ff81166000908152600360205260408120869055849083906020020152828260016020020181815250506000600460009054906101000a90046001600160a01b03166001600160a01b031663d622e5a4620249f0858f6040518463ffffffff1660e01b81526004016104199291906107a4565b6020604051808303818786fa158015610436573d6000803e3d6000fd5b50505050506040513d601f19601f8201168201806040525081019061045b91906107dc565b955085905061046b6002886107f5565b965050808061047990610809565b9150506102b4565b506000848152600260205260408120805460ff1916600190811790915580549599508995909182916104b4908390610828565b90915550506040517f24912d67c30845347b4a932ac74d20147045310108cc81c73271fe1a78b3b15c906104ed908a908a908a9061083b565b60405180910390a1505050505050505050505050505050565b604051806101400160405280600a906020820280368337509192915050565b60405180604001604052806002906020820280368337509192915050565b806040810183101561055457600080fd5b92915050565b600080600080600061056080878903121561057457600080fd5b863595506105858860208901610543565b945060e087018881111561059857600080fd5b6060880194506105a88982610543565b9350508781880111156105ba57600080fd5b50610120860190509295509295909350565b6000602082840312156105de57600080fd5b5035919050565b634e487b7160e01b600052601160045260246000fd5b600181815b8085111561063657816000190482111561061c5761061c6105e5565b8085161561062957918102915b93841c9390800290610600565b509250929050565b60008261064d57506001610554565b8161065a57506000610554565b8160018114610670576002811461067a57610696565b6001915050610554565b60ff84111561068b5761068b6105e5565b50506001821b610554565b5060208310610133831016604e8410600b84101617156106b9575081810a610554565b6106c383836105fb565b80600019048211156106d7576106d76105e5565b029392505050565b60006106ee60ff84168361063e565b9392505050565b61054081016040808784378083018660005b600281101561072457838284379183019190830190600101610707565b505050808560c0850137506104408361010084013795945050505050565b60006020828403121561075457600080fd5b815180151581146106ee57600080fd5b634e487b7160e01b600052601260045260246000fd5b60008261078957610789610764565b500690565b634e487b7160e01b600052603260045260246000fd5b60608101818460005b60028110156107cc5781518352602092830192909101906001016107ad565b5050508260408301529392505050565b6000602082840312156107ee57600080fd5b5051919050565b60008261080457610804610764565b500490565b600060ff821660ff810361081f5761081f6105e5565b60010192915050565b80820180821115610554576105546105e5565b8381526102a0810160208083018560005b600a8110156108695781518352918301919083019060010161084c565b50505061016083018460005b600a81101561089557815160ff1683529183019190830190600101610875565b5050505094935050505056fea2646970667358221220462cda764a0df438b625673f5ff28c5958dac89e358a71da27aa8a60cf43862e64736f6c63430008110033",
    "linkReferences": {},
    "deployedLinkReferences": {}
}