{
    "_format": "hh-sol-artifact-1",
    "contractName": "ASP",
    "sourceName": "contracts/ASP.sol",
    "abi": [
        {
            "inputs": [
                {
                    "internalType": "address",
                    "name": "_hasher",
                    "type": "address"
                }
            ],
            "stateMutability": "nonpayable",
            "type": "constructor"
        },
        {
            "anonymous": false,
            "inputs": [
                {
                    "indexed": false,
                    "internalType": "uint256",
                    "name": "root",
                    "type": "uint256"
                },
                {
                    "indexed": false,
                    "internalType": "uint256[10]",
                    "name": "hashPairings",
                    "type": "uint256[10]"
                },
                {
                    "indexed": false,
                    "internalType": "uint8[10]",
                    "name": "pairDirection",
                    "type": "uint8[10]"
                }
            ],
            "name": "userAdded",
            "type": "event"
        },
        {
            "inputs": [
                {
                    "internalType": "uint256",
                    "name": "_Commitment",
                    "type": "uint256"
                }
            ],
            "name": "addUser",
            "outputs": [],
            "stateMutability": "nonpayable",
            "type": "function"
        },
        {
            "inputs": [],
            "name": "admin",
            "outputs": [
                {
                    "internalType": "address",
                    "name": "",
                    "type": "address"
                }
            ],
            "stateMutability": "view",
            "type": "function"
        },
        {
            "inputs": [],
            "name": "crypto_mixer",
            "outputs": [
                {
                    "internalType": "address",
                    "name": "",
                    "type": "address"
                }
            ],
            "stateMutability": "view",
            "type": "function"
        },
        {
            "inputs": [
                {
                    "internalType": "uint256",
                    "name": "_root",
                    "type": "uint256"
                }
            ],
            "name": "markedPaid",
            "outputs": [],
            "stateMutability": "nonpayable",
            "type": "function"
        },
        {
            "inputs": [],
            "name": "nextLeafIdx",
            "outputs": [
                {
                    "internalType": "uint256",
                    "name": "",
                    "type": "uint256"
                }
            ],
            "stateMutability": "view",
            "type": "function"
        },
        {
            "inputs": [
                {
                    "internalType": "uint256",
                    "name": "",
                    "type": "uint256"
                }
            ],
            "name": "roots",
            "outputs": [
                {
                    "internalType": "bool",
                    "name": "",
                    "type": "bool"
                }
            ],
            "stateMutability": "view",
            "type": "function"
        },
        {
            "inputs": [],
            "name": "treeLevel",
            "outputs": [
                {
                    "internalType": "uint8",
                    "name": "",
                    "type": "uint8"
                }
            ],
            "stateMutability": "view",
            "type": "function"
        },
        {
            "inputs": [
                {
                    "internalType": "address",
                    "name": "_crypto_mixer",
                    "type": "address"
                }
            ],
            "name": "updateMixer",
            "outputs": [],
            "stateMutability": "nonpayable",
            "type": "function"
        }
    ],
    "bytecode": "0x6000805460ff1916600a90811782556001919091556101c06040527f33418cd1669b4e7f4bf473ec2db9a489b3d6f9f11b91d0b3b6004432ab53d60b60809081527f350ffb7c45ccf8940c163b192252495b614def57272b6f8d9a53a5b3e44ef8bd60a0527fc8acb7af851baf91a82b1ad46b01ac506ce80387170890dea377d21e8520258460c0527f5171d273154b2764aa5903210e16bd1899b18648d1358d41887a113227e9acc560e0527f986c06cb04d613f57cf7a1da410e0f22c794e1ec1ae125898cfc9662a5e5be59610100527f6eb9a05106eff3031621027680204b2e9326b0e5191bd62f3cd7bf7f6d94d027610120527fa1cbc8691493398c061f547b4882edbb6a38ce1730c8a2605e9d8138d4ad1226610140527f850aa72f3d8bc65181e9c29d76f7614e2f939ade9442abac29fc8a0329deeffd610160527fe9c6f678752dbfc89028bf8b9b1cce608b34b742b75fbae878ec2c6ae803dc1e610180527fa9e22c2e1f4531bc4389032bb472b97c25a7298d27ba4fefd75439a1be46f77f6101a05261019791600791906101f1565b503480156101a457600080fd5b50604051610add380380610add8339810160408190526101c391610244565b600480546001600160a01b039092166001600160a01b03199283161790556005805490911633179055610274565b82600a810192821561021f579160200282015b8281111561021f578251825591602001919060010190610204565b5061022b92915061022f565b5090565b5b8082111561022b5760008155600101610230565b60006020828403121561025657600080fd5b81516001600160a01b038116811461026d57600080fd5b9392505050565b61085a806102836000396000f3fe608060405234801561001057600080fd5b50600436106100885760003560e01c8063c2b40ae41161005b578063c2b40ae414610108578063cd43da171461013b578063e1d817361461014e578063f851a4401461016157600080fd5b806345e0523f1461008d5780637fecf0fd146100a95780639c5a5366146100d4578063b8e79564146100e9575b600080fd5b61009660015481565b6040519081526020015b60405180910390f35b6006546100bc906001600160a01b031681565b6040516001600160a01b0390911681526020016100a0565b6100e76100e2366004610593565b610174565b005b6000546100f69060ff1681565b60405160ff90911681526020016100a0565b61012b610116366004610593565b60026020526000908152604090205460ff1681565b60405190151581526020016100a0565b6100e76101493660046105ac565b61022d565b6100e761015c366004610593565b610296565b6005546100bc906001600160a01b031681565b6006546001600160a01b031633146101c05760405162461bcd60e51b815260206004820152600a60248201526937b7363c9036b4bc32b960b11b60448201526064015b60405180910390fd5b60008181526002602052604090205460ff166102155760405162461bcd60e51b815260206004820152601460248201527314185a59881bdc88139bdb8b515e1a5cdd185b9d60621b60448201526064016101b7565b6000908152600260205260409020805460ff19169055565b6005546001600160a01b031633146102745760405162461bcd60e51b815260206004820152600a60248201526937b7363c9030b236b4b760b11b60448201526064016101b7565b600680546001600160a01b0319166001600160a01b0392909216919091179055565b60005481906102a99060ff1660026106d8565b600154106102e55760405162461bcd60e51b81526020600482015260096024820152681d1c99594b599d5b1b60ba1b60448201526064016101b7565b60006102ef610556565b6102f7610556565b60015484600080610306610575565b60005b60005460ff90811690821610156104d6576103256002876106fd565b6000036103a45784935060078160ff16600a811061034557610345610711565b0154925060078160ff16600a811061035f5761035f610711565b0154888260ff16600a811061037657610376610711565b602002015260008760ff8316600a811061039257610392610711565b60ff90921660209290920201526103fa565b60ff8116600081815260036020526040902054945085935084908990600a81106103d0576103d0610711565b602002015260018760ff8316600a81106103ec576103ec610711565b60ff90921660209290920201525b60ff81166000908152600360205260408120869055849083906020020152828260016020020181815250506000600460009054906101000a90046001600160a01b03166001600160a01b031663d622e5a4620249f0858e6040518463ffffffff1660e01b815260040161046e929190610727565b6020604051808303818786fa15801561048b573d6000803e3d6000fd5b50505050506040513d601f19601f820116820180604052508101906104b0919061075f565b95508590506104c0600288610778565b96505080806104ce9061078c565b915050610309565b506000848152600260205260408120805460ff1916600190811790915580549599508995909182916105099083906107ab565b90915550506040517f24912d67c30845347b4a932ac74d20147045310108cc81c73271fe1a78b3b15c90610542908a908a908a906107be565b60405180910390a150505050505050505050565b604051806101400160405280600a906020820280368337509192915050565b60405180604001604052806002906020820280368337509192915050565b6000602082840312156105a557600080fd5b5035919050565b6000602082840312156105be57600080fd5b81356001600160a01b03811681146105d557600080fd5b9392505050565b634e487b7160e01b600052601160045260246000fd5b600181815b8085111561062d578160001904821115610613576106136105dc565b8085161561062057918102915b93841c93908002906105f7565b509250929050565b600082610644575060016106d2565b81610651575060006106d2565b816001811461066757600281146106715761068d565b60019150506106d2565b60ff841115610682576106826105dc565b50506001821b6106d2565b5060208310610133831016604e8410600b84101617156106b0575081810a6106d2565b6106ba83836105f2565b80600019048211156106ce576106ce6105dc565b0290505b92915050565b60006105d560ff841683610635565b634e487b7160e01b600052601260045260246000fd5b60008261070c5761070c6106e7565b500690565b634e487b7160e01b600052603260045260246000fd5b60608101818460005b600281101561074f578151835260209283019290910190600101610730565b5050508260408301529392505050565b60006020828403121561077157600080fd5b5051919050565b600082610787576107876106e7565b500490565b600060ff821660ff81036107a2576107a26105dc565b60010192915050565b808201808211156106d2576106d26105dc565b8381526102a0810160208083018560005b600a8110156107ec578151835291830191908301906001016107cf565b50505061016083018460005b600a81101561081857815160ff16835291830191908301906001016107f8565b5050505094935050505056fea2646970667358221220d5d4c7e740a5b9e11710117fea7dbba346eea8aa82d713102500f37e029eddbc64736f6c63430008110033",
    "linkReferences": {},
    "deployedLinkReferences": {}
}